{
  "_format": "hh-sol-artifact-1",
  "contractName": "Deposited",
  "sourceName": "contracts/Deposit.sol",
  "abi": [
    {
      "inputs": [
        {
          "internalType": "contract IERC20",
          "name": "_erc20Token",
          "type": "address"
        },
        {
          "internalType": "contract MintERC721",
          "name": "_erc721Token",
          "type": "address"
        }
      ],
      "stateMutability": "nonpayable",
      "type": "constructor"
    },
    {
      "anonymous": false,
      "inputs": [
        {
          "indexed": true,
          "internalType": "address",
          "name": "user",
          "type": "address"
        },
        {
          "indexed": false,
          "internalType": "uint256",
          "name": "amount",
          "type": "uint256"
        }
      ],
      "name": "Deposit",
      "type": "event"
    },
    {
      "inputs": [],
      "name": "DEPOSIT_THRESHOLD",
      "outputs": [
        {
          "internalType": "uint256",
          "name": "",
          "type": "uint256"
        }
      ],
      "stateMutability": "view",
      "type": "function"
    },
    {
      "inputs": [
        {
          "internalType": "uint256",
          "name": "amount",
          "type": "uint256"
        }
      ],
      "name": "deposit",
      "outputs": [],
      "stateMutability": "nonpayable",
      "type": "function"
    },
    {
      "inputs": [
        {
          "internalType": "address",
          "name": "",
          "type": "address"
        }
      ],
      "name": "deposits",
      "outputs": [
        {
          "internalType": "uint256",
          "name": "",
          "type": "uint256"
        }
      ],
      "stateMutability": "view",
      "type": "function"
    },
    {
      "inputs": [],
      "name": "erc20Token",
      "outputs": [
        {
          "internalType": "contract IERC20",
          "name": "",
          "type": "address"
        }
      ],
      "stateMutability": "view",
      "type": "function"
    },
    {
      "inputs": [],
      "name": "erc721Token",
      "outputs": [
        {
          "internalType": "contract MintERC721",
          "name": "",
          "type": "address"
        }
      ],
      "stateMutability": "view",
      "type": "function"
    }
  ],
  "bytecode": "0x608060405234801561001057600080fd5b50604051610a53380380610a538339818101604052810190610032919061016d565b816000806101000a81548173ffffffffffffffffffffffffffffffffffffffff021916908373ffffffffffffffffffffffffffffffffffffffff16021790555080600160006101000a81548173ffffffffffffffffffffffffffffffffffffffff021916908373ffffffffffffffffffffffffffffffffffffffff16021790555050506101ad565b600080fd5b600073ffffffffffffffffffffffffffffffffffffffff82169050919050565b60006100ea826100bf565b9050919050565b60006100fc826100df565b9050919050565b61010c816100f1565b811461011757600080fd5b50565b60008151905061012981610103565b92915050565b600061013a826100df565b9050919050565b61014a8161012f565b811461015557600080fd5b50565b60008151905061016781610141565b92915050565b60008060408385031215610184576101836100ba565b5b60006101928582860161011a565b92505060206101a385828601610158565b9150509250929050565b610897806101bc6000396000f3fe608060405234801561001057600080fd5b50600436106100575760003560e01c80635f2d6bcd1461005c5780638a13eea71461007a578063b6b55f2514610098578063d9fb27b9146100b4578063fc7e286d146100d2575b600080fd5b610064610102565b60405161007191906104d5565b60405180910390f35b610082610128565b60405161008f9190610511565b60405180910390f35b6100b260048036038101906100ad9190610567565b61014c565b005b6100bc610431565b6040516100c991906105a3565b60405180910390f35b6100ec60048036038101906100e791906105fc565b61043e565b6040516100f991906105a3565b60405180910390f35b600160009054906101000a900473ffffffffffffffffffffffffffffffffffffffff1681565b60008054906101000a900473ffffffffffffffffffffffffffffffffffffffff1681565b6000811161018f576040517f08c379a0000000000000000000000000000000000000000000000000000000008152600401610186906106ac565b60405180910390fd5b60008054906101000a900473ffffffffffffffffffffffffffffffffffffffff1673ffffffffffffffffffffffffffffffffffffffff166323b872dd3330846040518463ffffffff1660e01b81526004016101ec939291906106db565b6020604051808303816000875af115801561020b573d6000803e3d6000fd5b505050506040513d601f19601f8201168201806040525081019061022f919061074a565b61026e576040517f08c379a0000000000000000000000000000000000000000000000000000000008152600401610265906107c3565b60405180910390fd5b80600260003373ffffffffffffffffffffffffffffffffffffffff1673ffffffffffffffffffffffffffffffffffffffff16815260200190815260200160002060008282546102bd9190610812565b92505081905550683635c9adc5dea00000600260003373ffffffffffffffffffffffffffffffffffffffff1673ffffffffffffffffffffffffffffffffffffffff168152602001908152602001600020541061042e57600160009054906101000a900473ffffffffffffffffffffffffffffffffffffffff1673ffffffffffffffffffffffffffffffffffffffff16636a627842336040518263ffffffff1660e01b815260040161036e9190610846565b600060405180830381600087803b15801561038857600080fd5b505af115801561039c573d6000803e3d6000fd5b505050503373ffffffffffffffffffffffffffffffffffffffff167fe1fffcc4923d04b559f4d29a8bfc6cda04eb5b0d3c460751c2402c5c5cc9109c600260003373ffffffffffffffffffffffffffffffffffffffff1673ffffffffffffffffffffffffffffffffffffffff1681526020019081526020016000205460405161042591906105a3565b60405180910390a25b50565b683635c9adc5dea0000081565b60026020528060005260406000206000915090505481565b600073ffffffffffffffffffffffffffffffffffffffff82169050919050565b6000819050919050565b600061049b61049661049184610456565b610476565b610456565b9050919050565b60006104ad82610480565b9050919050565b60006104bf826104a2565b9050919050565b6104cf816104b4565b82525050565b60006020820190506104ea60008301846104c6565b92915050565b60006104fb826104a2565b9050919050565b61050b816104f0565b82525050565b60006020820190506105266000830184610502565b92915050565b600080fd5b6000819050919050565b61054481610531565b811461054f57600080fd5b50565b6000813590506105618161053b565b92915050565b60006020828403121561057d5761057c61052c565b5b600061058b84828501610552565b91505092915050565b61059d81610531565b82525050565b60006020820190506105b86000830184610594565b92915050565b60006105c982610456565b9050919050565b6105d9816105be565b81146105e457600080fd5b50565b6000813590506105f6816105d0565b92915050565b6000602082840312156106125761061161052c565b5b6000610620848285016105e7565b91505092915050565b600082825260208201905092915050565b7f4465706f73697420616d6f756e74206d7573742062652067726561746572207460008201527f68616e2030000000000000000000000000000000000000000000000000000000602082015250565b6000610696602583610629565b91506106a18261063a565b604082019050919050565b600060208201905081810360008301526106c581610689565b9050919050565b6106d5816105be565b82525050565b60006060820190506106f060008301866106cc565b6106fd60208301856106cc565b61070a6040830184610594565b949350505050565b60008115159050919050565b61072781610712565b811461073257600080fd5b50565b6000815190506107448161071e565b92915050565b6000602082840312156107605761075f61052c565b5b600061076e84828501610735565b91505092915050565b7f4552433230207472616e73666572206661696c65640000000000000000000000600082015250565b60006107ad601583610629565b91506107b882610777565b602082019050919050565b600060208201905081810360008301526107dc816107a0565b9050919050565b7f4e487b7100000000000000000000000000000000000000000000000000000000600052601160045260246000fd5b600061081d82610531565b915061082883610531565b92508282019050808211156108405761083f6107e3565b5b92915050565b600060208201905061085b60008301846106cc565b9291505056fea26469706673582212208167b1485abd9a1ee57257b3354277ac0ed780b1a7ce02ecf0d2eede0b2e9f3864736f6c63430008140033",
  "linkReferences": {},
  "deployedLinkReferences": {}
}